:100000000C943F000C945C000C945C000C945C001D
:100010000C945C000C945C000C945C000C94080242
:100020000C945C000C945C000C945C000C945C00E0
:100030000C945C000C945C000C945C000C945C00D0
:100040000C945C000C945C000C9421020C944C0207
:100050000C945C000C945C000C945C000C945C00B0
:100060000C945C000C945C006B0074009100B20076
:10007000CD00EB00F300FC00120117013201112446
:100080001FBECFEFD8E0DEBFCDBF11E0A0E0B1E0F2
:10009000E0E2FBE002C005900D92A432B107D9F76F
:1000A00021E0A4E2B1E001C01D92AF36B207E1F752
:1000B0000E947A010C948E050C940000E0912901B5
:1000C0008E2F90E08B30910508F0D1C0FC01EC5CE4
:1000D000FF4F0C94B00288EE93E09093010180935F
:1000E000000110922801BEC088EE93E090930101B8
:1000F000809300019091260180912501913029F48F
:10010000813019F492E0909329019091240191306B
:1001100019F4813009F480C08111A9C0109229011D
:100120000895209100013091010180912601232B37
:1001300021F0811107C083E003C0813019F486E00B
:100140008093290180912701811107C080912401AA
:10015000813019F488E0809329018091250188235A
:10016000E9F208958091000190910101892B31F00D
:1001700080912601813029F484E001C081E08093E0
:10018000290180912401813019F488E080932901AC
:1001900080912501882311F208952091000130916A
:1001A000010180912401232B41F0909126019111AE
:1001B00007C0811105C085E006C091E09093290138
:1001C000813019F488E080932901809125018823EA
:1001D00009F4A4CF089581E090912701911180E066
:1001E0008093270141C081E090912801911180E026
:1001F0008093280187E039C09091260180912501E4
:10020000911104C0813011F480932901909124014F
:10021000913021F4813011F488E027C0882309F45B
:100220007DCF089581E08093270189E01EC088EE8C
:1002300093E090930101809300018091240181114A
:1002400003C08AE0809329019091260180912501C5
:10025000913021F4813011F482E007C0882309F441
:100260005DCF08951092270181E0809329010895C0
:100270004E990DC08FE99FE00197F1F700C0000093
:1002800089B186FB882780F991E08927089580E06D
:1002900008954C990CC08FE99FE00197F1F700C0D9
:1002A000000089B18295817091E08927089580E0EE
:1002B00008954D990DC08FE99FE00197F1F700C0B7
:1002C000000089B185FB882780F991E0892708958E
:1002D00080E0089580912801813011F45A9A0895A0
:1002E0005A98089580912701813011F45B9A0895FE
:1002F0005B980895CF93DF93CDB7DEB7C456D1098D
:100300000FB6F894DEBF0FBECDBF529A539A5698DF
:100310005E9A54985C9A55985D9A82E0809370003A
:1003200099EF9093B3008093B00084E08093B10084
:1003300087E690E00E947602789411E082E0C82E71
:1003400081E0D82ECE0101967C010E9438018823DD
:1003500039F080912601811105C01093260102C059
:10036000109226010E944901882339F080912501CD
:10037000811105C01093250102C0109225010E9431
:100380005901882339F080912401811105C010930F
:10039000240102C0109224010E945E000E9472019A
:1003A0000E946A01809101018F93809100018F93D7
:1003B000809129011F928F93809127011F928F9323
:1003C000809124011F928F93809125011F928F931A
:1003D000809126011F928F93DF92CF92FF92EF922E
:1003E0000E94B602C7010E94A40281E291E00E942D
:1003F000A4029FEF29EF80E0915020408040E1F778
:1004000000C000000FB6F894DEBF0FBECDBF9DCF79
:100410001F920F920FB60F9211248F939F9380918A
:10042000000190910101009729F00197909301013B
:10043000809300019F918F910F900FBE0F901F909E
:1004400018951F920F920FB60F9211242F938F932E
:100450009F93EF93FF938091C0009091C6008871A5
:10046000E0912C01EF5FEF7120912B01E21739F041
:10047000E0932C01F0E0E15DFE4F908301C082E04B
:1004800080932A01FF91EF919F918F912F910F906F
:100490000FBE0F901F9018951F920F920FB60F92DC
:1004A00011248F939F93EF93FF9390912E0180914E
:1004B0002D01981769F0E0912D01EF5FEF71E09346
:1004C0002D01F0E0E15BFE4F80818093C60005C006
:1004D0008091C1008F7D8093C100FF91EF919F912A
:1004E0008F910F900FBE0F901F90189510922E01B4
:1004F00010922D0110922C0110922B0197FF04C035
:1005000022E02093C0009F779093C5008093C400A1
:1005100088E98093C10086E08093C200089590919D
:100520002E019F5F9F7120912D019217E1F3E92F1A
:10053000F0E0E15BFE4F808390932E018091C1003B
:1005400080628093C1000895CF93DF93EC0189917D
:10055000882319F00E948F02FACFDF91CF9108957E
:10056000EE0FFF1F0590F491E02D0994AEE0B0E08E
:10057000ECEBF2E00C9465050D891E8986E08C8316
:100580001A8309838FEF9FE79E838D83AE01475EB9
:100590005F4F6F89788DCE0101960E94D9022F811D
:1005A0003885F801E20FF31F10822E96E4E00C94D8
:1005B0008105ACE0B0E0EFEDF2E00C9457057C0172
:1005C0006B018A01FC0117821682838181FFBDC104
:1005D000CE0101964C01F7019381F60193FD8591BF
:1005E00093FF81916F01882309F4ABC1853239F4FF
:1005F00093FD859193FF81916F01853229F4B701B5
:1006000090E00E94C104E7CF512C312C20E0203231
:10061000A0F48B3269F030F4803259F0833269F4FF
:1006200020612CC08D3239F0803339F4216026C02E
:100630002260246023C0286021C027FD27C030ED40
:10064000380F3A3078F426FF06C0FAE05F9E300D8E
:100650001124532E13C08AE0389E300D1124332EFE
:1006600020620CC08E3221F426FD6BC1206406C0CE
:100670008C3611F4206802C0883641F4F60193FDEF
:10068000859193FF81916F018111C1CF982F9F7D3B
:100690009554933028F40C5F1F4FFFE3F9830DC08E
:1006A000833631F0833771F0833509F05BC022C0A7
:1006B000F801808189830E5F1F4F44244394512C9D
:1006C000540115C03801F2E06F0E711CF801A080D2
:1006D000B18026FF03C0652D70E002C06FEF7FEF91
:1006E000C5012C870E94B6042C0183012C852F772D
:1006F000222E17C03801F2E06F0E711CF801A080A5
:10070000B18026FF03C0652D70E002C06FEF7FEF60
:10071000C5012C870E94AB042C012C852068222E59
:10072000830123FC1BC0832D90E048165906B0F4CA
:10073000B70180E290E00E94C1043A94F4CFF50141
:1007400027FC859127FE81915F01B70190E00E940F
:10075000C10431103A94F1E04F1A51084114510488
:1007600071F7E5C0843611F0893639F5F80127FFB5
:1007700007C060817181828193810C5F1F4F08C027
:1007800060817181072E000C880B990B0E5F1F4F43
:100790002F76722E97FF09C0909580957095619580
:1007A0007F4F8F4F9F4F2068722E2AE030E0A401C8
:1007B0000E94F904A82EA81844C0853729F42F7E7A
:1007C000B22E2AE030E025C0F22FF97FBF2E8F36FF
:1007D000C1F018F4883579F0B4C0803719F0883743
:1007E00021F0AFC02F2F2061B22EB4FE0DC08B2D93
:1007F0008460B82E09C024FF0AC09F2F9660B92ECE
:1008000006C028E030E005C020E130E002C020E171
:1008100032E0F801B7FE07C0608171818281938167
:100820000C5F1F4F06C06081718180E090E00E5F19
:100830001F4FA4010E94F904A82EA818FB2DFF77D2
:100840007F2E76FE0BC0372D3E7FA51450F474FE2C
:100850000AC072FC08C0372D3E7E05C0BA2C372D69
:1008600003C0BA2C01C0B52C34FF0DC0FE01EA0D47
:10087000F11D8081803311F4397E09C032FF06C03A
:10088000B394B39404C0832F867809F0B39433FDF6
:1008900013C030FF06C05A2CB31418F4530C5B1865
:1008A000B32CB31468F4B70180E290E03C870E9457
:1008B000C104B3943C85F5CFB31410F43B1801C0C8
:1008C000312C34FF12C0B70180E390E03C870E94D6
:1008D000C1043C8532FF17C031FD03C088E790E0BA
:1008E00002C088E590E0B7010CC0832F867859F0EC
:1008F00031FF02C08BE201C080E237FD8DE2B7011B
:1009000090E00E94C104A51438F4B70180E390E0A0
:100910000E94C1045A94F7CFAA94F401EA0DF11D84
:100920008081B70190E00E94C104A110F5CF33206F
:1009300009F451CEB70180E290E00E94C1043A94DC
:10094000F6CFF7018681978102C08FEF9FEF2C963B
:10095000E2E10C947305FC010590615070400110B8
:10096000D8F7809590958E0F9F1F0895FC016150D8
:10097000704001900110D8F7809590958E0F9F1FC1
:1009800008950F931F93CF93DF93FB01238121FDE4
:1009900003C08FEF9FEF28C022FF16C0468157810A
:1009A000248135814217530744F4A081B1819D0110
:1009B0002F5F3F4F318320838C93268137812F5FB8
:1009C0003F4F3783268310C0EB01092F182F008477
:1009D000F185E02D0995892BE1F68E819F810196A5
:1009E0009F838E83812F902FDF91CF911F910F9145
:1009F0000895FA01AA27283051F1203181F1E894B5
:100A00006F936E7F6E5F7F4F8F4F9F4FAF4FB1E001
:100A10003ED0B4E03CD0670F781F891F9A1FA11DFC
:100A2000680F791F8A1F911DA11D6A0F711D811DFD
:100A3000911DA11D20D009F468943F912AE0269FC2
:100A400011243019305D3193DEF6CF010895462F21
:100A50004770405D4193B3E00FD0C9F7F6CF462F02
:100A60004F70405D4A3318F0495D31FD405241936B
:100A700002D0A9F7EACFB4E0A69597958795779528
:100A80006795BA95C9F700976105710508959B01AF
:100A9000AC010A2E06945795479537952795BA9538
:100AA000C9F7620F731F841F951FA01D08952F9211
:100AB0003F924F925F926F927F928F929F92AF92EE
:100AC000BF92CF92DF92EF92FF920F931F93CF933B
:100AD000DF93CDB7DEB7CA1BDB0B0FB6F894DEBFD2
:100AE0000FBECDBF09942A88398848885F846E84F8
:100AF0007D848C849B84AA84B984C884DF80EE8042
:100B0000FD800C811B81AA81B981CE0FD11D0FB64A
:100B1000F894DEBF0FBECDBFED010895F894FFCF6E
:100B2000E8032564092564092564092564097374AB
:100B30006174653A2025640974696D653A09257503
:040B4000000D0A009A
:00000001FF
